:100000000C9489190C94581A0C94B3190C94B319C4
:100010000C94B3190C94B3190C944B1D0C94B31994
:100020000C944E1A0C94B3190C94B3190C94EF1C45
:100030000C94B3190C94B3190C94B3190C94E81DD7
:100040000C94B3190C94B3190C94B3190C94B31900
:100050000C945A1F0C94901F0C94B3190C94B31960
:100060000C94B3190C94B3190C94B3190C94B319E0
:100070000C94B3190C94B3190C94B3190C94B319D0
:100080000C94B3190C94B3190C946F1DC35CE3C3A7
:1000900058E37F0020202020202020202020202026
:1000A00020202020434F505952494748542028438C
:1000B0002920313937392C204449474954414C20B3
:1000C00052455345415243482020000000000000A3
:1000D0000000000000000000000000000000000020
:1000E0000000000000000000000000000000000010
:1000F0000000000000000000000000000000000000
:1001000000000000000000000000000000000000EF
:100110000000000008E000005F0E02C30500C5CD2E
:100120008CE0C1C93E0DCD92E03E0AC392E03E2074
:10013000C392E0C5CD98E0E17EB7C823E5CD8CE061
:10014000E1C3ACE00E0DC305005F0E0EC30500CD8C
:10015000050032EEE73CC90E0FC3C3E0AF32EDE756
:1001600011CDE7C3CBE00E10C3C3E00E11C3C3E053
:100170000E12C3C3E011CDE7C3DFE00E13C30500C9
:10018000CD0500B7C90E14C3F4E011CDE7C3F9E003
:100190000E15C3F4E00E16C3C3E00E17C305001E10
:1001A000FF0E20C30500CD13E18787878721EFE786
:1001B000B6320400C93AEFE7320400C9FE61D8FE46
:1001C0007BD0E65FC93AABE7B7CA96E13AEFE7B74B
:1001D0003E00C4BDE011ACE7CDCBE0CA96E13ABB2E
:1001E000E73D32CCE711ACE7CDF9E0C296E111076B
:1001F000E02180000680CD42E421BAE736002335B5
:1002000011ACE7CDDAE0CA96E13AEFE7B7C4BDE05A
:100210002108E0CDACE0CDC2E1CAA7E1CDDDE1C36C
:1002200082E3CDDDE1CD1AE10E0A1106E0CD050035
:10023000CD29E12107E0462378B7CABAE17ECD3067
:10024000E17705C3ABE1772108E02288E0C90E0B16
:10025000CD0500B7C80E01CD0500B7C90E19C305FD
:10026000001180000E1AC3050021ABE77EB7C83627
:1002700000AFCDBDE011ACE7CDEFE03AEFE7C3BD95
:10028000E01128E32100E806061ABEC2CFE31323DB
:1002900005C2FDE1C9CD98E02A8AE07EFE20CA228F
:1002A000E2B7CA22E2E5CD8CE0E123C30FE23E3F94
:1002B000CD8CE0CD98E0CDDDE1C382E31AB7C8FE76
:1002C00020DA09E2C8FE3DC8FE5FC8FE2EC8FE3A2D
:1002D000C8FE3BC8FE3CC8FE3EC8C91AB7C8FE20CF
:1002E000C013C34FE2856FD024C93E0021CDE7CDB6
:1002F00059E2E5E5AF32F0E72A88E0EBCD4FE2EBDB
:10030000228AE0EBE11AB7CA89E2DE4047131AFEFF
:100310003ACA90E21B3AEFE777C396E27832F0E709
:1003200070130608CD30E2CAB9E223FE2AC2A9E260
:10033000363FC3ABE2771305C298E2CD30E2CAC0C4
:10034000E213C3AFE223362005C2B9E20603FE2E54
:10035000C2E9E213CD30E2CAE9E223FE2AC2D9E2C1
:10036000363FC3DBE2771305C2C8E2CD30E2CAF004
:10037000E213C3DFE223362005C2E9E20603233697
:100380000005C2F2E2EB2288E0E1010B00237EFED1
:100390003FC209E3040DC201E378B7C944495220C2
:1003A00045524120545950455341564552454E20DF
:1003B000555345520959000007892110E30E007971
:1003C000FE06D011CEE706041ABEC24FE313230582
:1003D000C23CE31AFE20C254E379C92305C24FE3AD
:1003E0000CC333E3AF3207E031ABE7C5791F1F1F02
:1003F0001FE60F5FCD15E1CDB8E032ABE7C179E67E
:100400000F32EFE7CDBDE03A07E0B7C298E331AB7A
:10041000E7CD98E0CDD0E1C641CD8CE03E3ECD8C1D
:10042000E0CD39E1118000CDD8E1CDD0E132EFE768
:10043000CD5EE2C409E23AF0E7B7C2A5E6CD2EE30D
:1004400021C1E35F160019197E23666FE977E41F67
:10045000E55DE5ADE510E68EE6A5E621F376220042
:10046000E02100E0E901DFE3C3A7E0524541442079
:100470004552524F520001F0E3C3A7E04E4F2046D1
:10048000494C4500CD5EE23AF0E7B7C209E221CE21
:10049000E7010B007EFE20CA33E423D630FE0AD2E9
:1004A00009E25778E6E0C209E27807070780DA092F
:1004B000E280DA09E282DA09E2470DC208E4C97E85
:1004C000FE20C209E2230DC233E478C906037E127E
:1004D000231305C242E4C921800081CD59E27EC9BF
:1004E000AF32CDE73AF0E7B7C83D21EFE7BEC8C36A
:1004F000BDE03AF0E7B7C83D21EFE7BEC83AEFE705
:10050000C3BDE0CD5EE2CD54E421CEE77EFE20C245
:100510008FE4060B363F2305C288E41E00D5CDE9E3
:10052000E0CCEAE3CA1BE53AEEE70F0F0FE6604FB7
:100530003E0ACD4BE417DA0FE5D17B1CD5E603F577
:10054000C2CCE4CD98E0C5CDD0E1C1C641CD92E0AA
:100550003E3ACD92E0C3D4E4CDA2E03E3ACD92E063
:10056000CDA2E0060178CD4BE4E67FFE20C2F9E49F
:10057000F1F5FE03C2F7E43E09CD4BE4E67FFE2031
:10058000CA0EE53E20CD92E00478FE0CD20EE5FEC8
:1005900009C2D9E4CDA2E0C3D9E4F1CDC2E1C21BC6
:1005A000E5CDE4E0C398E4D1C386E7CD5EE2FE0B7F
:1005B000C242E50152E5CDA7E0CD39E12107E035A2
:1005C000C282E3237EFE59C282E3232288E0CD5417
:1005D000E411CDE7CDEFE03CCCEAE3C386E7414C44
:1005E0004C2028592F4E293F00CD5EE2C209E2CDB2
:1005F00054E4CDD0E0CAA7E5CD98E021F1E736FF7D
:1006000021F1E77EFE80DA87E5E5CDFEE0E1C2A0DC
:10061000E5AF7734218000CD59E27EFE1ACA86E725
:10062000CD8CE0CDC2E1C286E7C374E53DCA86E762
:10063000CDD9E3CD66E4C309E2CDF8E3F5CD5EE2C2
:10064000C209E2CD54E411CDE7D5CDEFE0D1CD091B
:10065000E1CAFBE5AF32EDE7F16F26002911000199
:100660007CB5CAF1E52BE521800019E5CDD8E11173
:10067000CDE7CD04E1D1E1C2FBE5C3D4E511CDE77F
:10068000CDDAE03CC201E60107E6CDA7E0CDD5E139
:10069000C386E74E4F20535041434500CD5EE2C232
:1006A00009E23AF0E7F5CD54E4CDE9E0C279E6217C
:1006B000CDE711DDE70610CD42E42A88E0EBCD4F0F
:1006C000E2FE3DCA3FE6FE5FC273E6EB232288E00E
:1006D000CD5EE2C273E6F14721F0E77EB7CA59E684
:1006E000B870C273E670AF32CDE7CDE9E0CA6DE60F
:1006F00011CDE7CD0EE1C386E7CDEAE3C386E7CDB2
:1007000066E4C309E20182E6CDA7E0C386E7464975
:100710004C452045584953545300CDF8E3FE10D2C0
:1007200009E25F3ACEE7FE20CA09E2CD15E1C389AE
:10073000E7CDF5E13ACEE7FE20C2C4E63AF0E7B7EE
:10074000CA89E73D32EFE7CD29E1CDBDE0C389E7B6
:1007500011D6E71AFE20C209E2D5CD54E4D1218397
:10076000E7CD40E4CDD0E0CA6BE7210001E5EBCD59
:10077000D8E111CDE7CDF9E0C201E7E11180001920
:100780001100E07D937C9AD271E7C3E1E6E13DC2BE
:1007900071E7CD66E4CD5EE221F0E7E57E32CDE79C
:1007A0003E10CD60E2E17E32DDE7AF32EDE7115C75
:1007B0000021CDE70621CD42E42108E07EB7CA3E04
:1007C000E7FE20CA3EE723C330E706001181007E22
:1007D00012B7CA4FE7042313C343E778328000CD32
:1007E00098E0CDD5E1CD1AE1CD000131ABE7CD29BF
:1007F000E1CDBDE0C382E3CD66E4C309E2017AE75F
:10080000CDA7E0C386E7424144204C4F414400431A
:100810004F4DCD66E4CD5EE23ACEE7D62021F0E73B
:10082000B6C209E2C382E30000000000000000003D
:1008300000000000000000000024242420202020CC
:10084000205355420000000000000000000000009E
:100850000000000000000000000000000000000098
:100860000000000000000000000000000000000088
:100870000000000000000000000000000000000078
:100880000000000000000000000000000959000006
:100890000789C311E899E8A5E8ABE8B1E8EB224382
:1008A000EBEB7B32D6F52100002245EB39220FEB32
:1008B0003141EBAF32E0F532DEF52174F5E579FE3A
:1008C00029D04B2147E85F160019195E23562A43A9
:1008D000EBEBE903F6C8EA90E9CEEA12F60FF6D49C
:1008E000EAEDEAF3EAF8EAE1E9FEEA7EF483F445A8
:1008F000F49CF4A5F4ABF4C8F4D7F4E0F4E6F4EC1B
:10090000F4F5F4FEF404F50AF511F52CED17F51DD8
:10091000F526F52DF541F547F54DF50EF453F504A3
:10092000EB04EB9BF521CAE8CDE5E8FE03CA000025
:10093000C921D5E8C3B4E821E1E8C3B4E821DCE883
:10094000CDE5E8C3000042646F7320457272204F0A
:100950006E20203A202442616420536563746F72D4
:100960002453656C6563742446696C6520522F4F6F
:1009700024E5CDC9E93A42EBC64132C6E801BAE8FE
:10098000CDD3E9C1CDD3E9210EEB7E3600B7C0C38C
:1009900009F6CDFBE8CD14E9D8F54FCD90E9F1C9C2
:1009A000FE0DC8FE0AC8FE09C8FE08C8FE20C93AE6
:1009B0000EEBB7C245E9CD06F6E601C8CD09F6FE55
:1009C00013C242E9CD09F6FE03CA0000AFC9320ED8
:1009D000EB3E01C93A0AEBB7C262E9C5CD23E9C1D2
:1009E000C5CD0CF6C1C53A0DEBB7C40FF6C17921E0
:1009F0000CEBFE7FC834FE20D0357EB7C879FE08E8
:100A0000C279E935C9FE0AC03600C979CD14E9D2E8
:100A100090E9F50E5ECD48E9F1F6404F79FE09C246
:100A200048E90E20CD48E93A0CEBE607C296E9C941
:100A3000CDACE90E20CD0CF60E08C30CF60E23CD7E
:100A400048E9CDC9E93A0CEB210BEBBED00E20CD25
:100A500048E9C3B9E90E0DCD48E90E0AC348E90AD1
:100A6000FE24C803C54FCD90E9C1C3D3E93A0CEBCE
:100A7000320BEB2A43EB4E23E50600C5E5CDFBE840
:100A8000E67FE1C1FE0DCAC1EAFE0ACAC1EAFE085C
:100A9000C216EA78B7CAEFE9053A0CEB320AEBC3A3
:100AA00070EAFE7FC226EA78B7CAEFE97E052BC35B
:100AB000A9EAFE05C237EAC5E5CDC9E9AF320BEBBD
:100AC000C3F1E9FE10C248EAE5210DEB3E0196773D
:100AD000E1C3EFE9FE18C25FEAE13A0BEB210CEB50
:100AE000BED2E1E935CDA4E9C34EEAFE15C26BEAF8
:100AF000CDB1E9E1C3E1E9FE12C2A6EAC5CDB1E993
:100B0000C1E1E5C578B7CA8AEA234E05C5E5CD7FC0
:100B1000E9E1C1C378EAE53A0AEBB7CAF1E9210C89
:100B2000EB96320AEBCDA4E9210AEB35C299EAC370
:100B3000F1E9237704C5E54FCD7FE9E1C17EFE03EE
:100B400078C2BDEAFE01CA0000B9DAEFE9E1700E31
:100B50000DC348E9CD06E9C301EBCD15F6C301EBA2
:100B6000793CCAE0EA3CCA06F6C30CF6CD06F6B7F5
:100B7000CA91F5CD09F6C301EB3A0300C301EB219D
:100B8000030071C9EB4D44C3D3E9CD23E93245EBF2
:100B9000C93E01C301EB000000000000000000009E
:100BA0000000000000000000000000000000000045
:100BB0000000000000000000000000000000000035
:100BC0000000000000000000000000000000000025
:100BD000000000210BE85E2356EBE90C0DC81A77E4
:100BE0001323C350EB3A42EB4FCD1BF67CB5C85EE6
:100BF00023562322B3F5232322B5F5232322B7F569
:100C00002323EB22D0F521B9F50E08CD4FEB2ABBFB
:100C1000F5EB21C1F50E0FCD4FEB2AC6F57C21DD9A
:100C2000F536FFB7CA9DEB36003EFFB7C9CD18F6C3
:100C3000AF2AB5F57723772AB7F5772377C9CD277C
:100C4000F6C3BBEBCD2AF6B7C82109E8C34AEB2AA5
:100C5000EAF50E02CDEAEC22E5F522ECF521E5F508
:100C60004E23462AB7F55E23562AB5F57E23666FD6
:100C70007993789AD2FAEBE52AC1F57B955F7A9C55
:100C800057E12BC3E4EBE52AC1F519DA0FEC7995AE
:100C9000789CDA0FECEBE123C3FAEBE1C5D5E5EB89
:100CA0002ACEF519444DCD1EF6D12AB5F57323721F
:100CB000D12AB7F5732372C179934F789A472AD016
:100CC000F5EBCD30F64D44C321F621C3F54E3AE3A2
:100CD000F5B71F0DC245EC473E08964F3AE2F50DB9
:100CE000CA5CECB717C353EC80C92A43EB11100060
:100CF00019093ADDF5B7CA71EC6E2600C9095E2301
:100D000056EBC9CD3EEC4F0600CD5EEC22E5F5C9B1
:100D10002AE5F57DB4C93AC3F52AE5F5293DC29027
:100D2000EC22E7F53AC4F54F3AE3F5A1B56F22E5B9
:100D3000F5C92A43EB110C0019C92A43EB110F0026
:100D400019EB21110019C9CDAEEC7E32E3F5EB7E33
:100D500032E1F5CDA6EC3AC5F5A632E2F5C9CDAE45
:100D6000EC3AD5F5FE02C2DEECAF4F3AE3F58177FF
:100D7000EB3AE1F577C90C0DC87CB71F677D1F6F93
:100D8000C3EBEC0E802AB9F5AF86230DC2FDECC98A
:100D90000C0DC829C305EDC53A42EB4F210100CD2A
:100DA00004EDC179B56F78B467C92AADF53A42EB65
:100DB0004FCDEAEC7DE601C921ADF54E2346CD0BC2
:100DC000ED22ADF52AC8F523EB2AB3F5732372C9DA
:100DD000CD5EED110900197E17D0210FE8C34AEB53
:100DE000CD1EEDC8210DE8C34AEB2AB9F53AE9F565
:100DF000856FD024C92A43EB110E00197EC9CD6935
:100E0000ED3600C9CD69EDF68077C92AEAF5EB2AFF
:100E1000B3F57B96237A9EC9CD7FEDD813722B73E1
:100E2000C97B956F7A9C67C90EFF2AECF5EB2ACC3B
:100E3000F5CD95EDD0C5CDF7EC2ABDF5EB2AECF557
:100E400019C10CCAC4EDBEC8CD7FEDD0CD2CEDC903
:100E500077C9CD9CEDCDE0ED0E01CDB8EBC3DAED59
:100E6000CDE0EDCDB2EB21B1F5C3E3ED21B9F54E07
:100E70002346C324F62AB9F5EB2AB1F50E80C34FF9
:100E8000EB21EAF57E23BEC03CC921FFFF22EAF533
:100E9000C92AC8F5EB2AEAF52322EAF5CD95EDD269
:100EA00019EEC3FEED3AEAF5E60306058705C22012
:100EB000EE32E9F5B7C0C5CDC3EBCDD4EDC1C39ECD
:100EC000ED79E6073C5F57790F0F0FE61F4F7887E4
:100ED00087878787B14F780F0F0FE61F472ABFF527
:100EE000097E071DC256EEC9D5CD35EEE6FEC1B16D
:100EF0000F15C264EE77C9CD5EED11100019C50E55
:100F000011D10DC8D53ADDF5B7CA88EEC5E54E0654
:100F100000C38EEE0DC54E2346E579B0CA9DEE2A7C
:100F2000C6F57D917C98D45CEEE123C1C375EE2AB1
:100F3000C6F50E03CDEAEC23444D2ABFF536002357
:100F40000B78B1C2B1EE2ACAF5EB2ABFF573237252
:100F5000CDA1EB2AB3F53603233600CDFEED0EFF0F
:100F6000CD05EECDF5EDC8CD5EED3EE5BECAD2EEC7
:100F70003A41EBBEC2F6EE237ED624C2F6EE3D32F7
:100F800045EB0E01CD6BEECD8CEDC3D2EE3AD4F530
:100F9000C301EBC5F53AC5F52F4779A04FF1A091F4
:100FA000E61FC1C93EFF32D4F521D8F5712A43EBC3
:100FB00022D9F5CDFEEDCDA1EB0E00CD05EECDF5A0
:100FC000EDCA94EF2AD9F5EB1AFEE5CA4AEFD5CD62
:100FD0007FEDD1D294EFCD5EED3AD8F54F06007992
:100FE000B7CA83EF1AFE3FCA7CEF78FE0DCA7CEFCA
:100FF000FE0C1ACA73EF96E67FC22DEFC37CEFC5D5
:101000004ECD07EFC1C22DEF1323040DC353EF3AAA
:10101000EAF5E6033245EB21D4F57E17D0AF77C968
:10102000CDFEED3EFFC301EBCD54ED0E0CCD18EF20
:10103000CDF5EDC8CD44EDCD5EED36E50E00CD6BC2
:10104000EECDC6EDCD2DEFC3A4EF505979B0CAD186
:10105000EF0BD5C5CD35EE1FD2ECEFC1D12AC6F5C9
:101060007B957A9CD2F4EF13C5D5424BCD35EE1F5C
:10107000D2ECEFD1C1C3C0EF173CCD64EEE1D1C9D2
:1010800079B0C2C0EF210000C90E001E20D50600B5
:101090002A43EB09EBCD5EEDC1CD4FEBCDC3EBC3E6
:1010A000C6EDCD54ED0E0CCD18EF2A43EB7E11109A
:1010B000001977CDF5EDC8CD44ED0E101E0CCD0115
:1010C000F0CD2DEFC327F00E0CCD18EFCDF5EDC808
:1010D0000E001E0CCD01F0CD2DEFC340F00E0FCD54
:1010E00018EFCDF5EDC8CDA6EC7EF5E5CD5EEDEBC8
:1010F0002A43EB0E20D5CD4FEBCD78EDD1210C005E
:10110000194E210F001946E1F17779BE78CA8BF0AC
:101110003E00DA8BF03E802A43EB110F001977C9AD
:101120007E23B62BC01A7713231A771B2BC9AF3235
:1011300045EB32EAF532EBF5CD1EEDC0CD69EDE6BB
:1011400080C00E0FCD18EFCDF5EDC8011000CD5EBB
:10115000ED09EB2A43EB090E103ADDF5B7CAE8F0CA
:101160007EB71AC2DBF077B7C2E1F07E12BEC21FB3
:10117000F1C3FDF0CD94F0EBCD94F0EB1ABEC21F9D
:10118000F113231ABEC21FF10D13230DC2CDF001BE
:10119000ECFF09EB091ABEDA17F17701030009EB3E
:1011A000097E123EFF32D2F5C310F02145EB35C95E
:1011B000CD54ED2A43EBE521ACF52243EB0E01CDF6
:1011C00018EFCDF5EDE12243EBC8EB210F00190E2E
:1011D00011AF77230DC246F1210D001977CD8CEDAB
:1011E000CDFDEFC378EDAF32D2F5CDA2F0CDF5ED68
:1011F000C82A43EB010C00097E3CE61F77CA83F145
:10120000473AC5F5A021D2F5A6CA8EF1C3ACF101CB
:10121000020009347EE60FCAB6F10E0FCD18EFCDED
:10122000F5EDC2ACF13AD3F53CCAB6F1CD24F1CD1F
:10123000F5EDCAB6F1C3AFF1CD5AF0CDBBECAFC3FB
:1012400001EBCD05EBC378ED3E0132D5F53EFF3223
:10125000D3F5CDBBEC3AE3F521E1F5BEDAE6F1FEDC
:1012600080C2FBF1CD5AF1AF32E3F53A45EBB7C29C
:10127000FBF1CD77ECCD84ECCAFBF1CD8AECCDD17E
:10128000EBCDB2EBC3D2ECC305EB3E0132D5F53E5C
:101290000032D3F5CD54ED2A43EBCD47EDCDBBEC79
:1012A0003AE3F5FE80D205EBCD77ECCD84EC0E0071
:1012B000C26EF2CD3EEC32D7F5010000B7CA3BF268
:1012C0004F0BCD5EEC444DCDBEEF7DB4C248F23E37
:1012D00002C301EB22E5F5EB2A43EB011000093ACA
:1012E000DDF5B73AD7F5CA64F2CD64ED73C36CF29D
:1012F0004F060009097323720E023A45EBB7C0C5C9
:10130000CD8AEC3AD5F53D3DC2BBF2C1C5793D3D34
:10131000C2BBF2E52AB9F557772314F28CF2CDE07F
:10132000ED2AE7F50E0222E5F5C5CDD1EBC1CDB82A
:10133000EB2AE5F50E003AC4F547A5B823C29AF2A8
:10134000E122E5F5CDDAEDCDD1EBC1C5CDB8EBC1EC
:101350003AE3F521E1F5BEDAD2F277340E0200006D
:10136000210000F5CD69EDE67F77F1FE7FC200F345
:101370003AD5F5FE01C200F3CDD2ECCD5AF12145AC
:10138000EB7EB7C2FEF23D32E3F53600C3D2ECAFDE
:1013900032D5F5C52A43EBEB212100197EE67FF516
:1013A0007E17237E17E61F4F7E1F1F1F1FE60F4766
:1013B000F1236E2C2D2E06C28BF3212000197721EC
:1013C0000C00197996C247F3210E00197896E67F32
:1013D000CA7FF3C5D5CDA2F0D1C12E033A45EB3C6F
:1013E000CA84F3210C001971210E001970CD51F03F
:1013F0003A45EB3CC27FF3C1C52E040CCA84F3CD41
:1014000024F12E053A45EB3CCA84F3C1AFC301EB8E
:10141000E5CD69ED36C0E1C17D3245EBC378ED0E17
:10142000FFCD03F3CCC1F1C90E00CD03F3CC03F221
:10143000C9EB194E0600210C00197E0FE680814F82
:101440003E0088477E0FE60F8047210E00197E87F9
:10145000878787F58047F5E17DE1B5E601C90E0C88
:10146000CD18EF2A43EB11210019E5722372237284
:10147000CDF5EDCA0CF4CD5EED110F00CDA5F3E175
:10148000E55F799623789E237B9EDA06F4732B70B2
:101490002B71CD2DEFC3E4F3E1C92A43EB112000FA
:1014A000CDA5F3212100197123702377C92AAFF547
:1014B0003A42EB4FCDEAECE5EBCD59EBE1CC47EB13
:1014C0007D1FD82AAFF54D44CD0BED22AFF5C3A358
:1014D000EE3AD6F52142EBBEC877C321F43EFF3287
:1014E000DEF52A43EB7EE61F3D32D6F5FE1ED275B1
:1014F000F43A42EB32DFF57E32E0F5E6E077CD45B7
:10150000F43A41EB2A43EBB677C93E22C301EB2103
:10151000000022ADF522AFF5AF3242EB2180002270
:10152000B1F5CDDAEDC321F4CD72EDCD51F4C35157
:10153000F0CD51F4C3A2F00E00EB7EFE3FCAC2F420
:10154000CDA6EC7EFE3FC472EDCD51F40E0FCD184A
:10155000EFC3E9ED2AD9F52243EBCD51F4CD2DEFC0
:10156000C3E9EDCD51F4CD9CEFC301EFCD51F4C3F0
:10157000BCF1CD51F4C3FEF1CD72EDCD51F4C324D5
:10158000F1CD51F4CD16F0C301EF2AAFF5C329F523
:101590003A42EBC301EBEB22B1F5C3DAED2ABFF51A
:1015A000C329F52AADF5C329F5CD51F4CD3BF0C3E0
:1015B00001EF2ABBF52245EBC93AD6F5FEFFC23B47
:1015C000F53A41EBC301EBE61F3241EBC9CD51F4D3
:1015D000C393F3CD51F4C39CF3CD51F4C3D2F32A9A
:1015E00043EB7D2F5F7C2F2AAFF5A4577DA35F2AA5
:1015F000ADF5EB22AFF57DA36F7CA26722ADF5C9F7
:101600003ADEF5B7CA91F52A43EB36003AE0F5B772
:10161000CA91F5773ADFF532D6F5CD45F42A0FEBCE
:10162000F92A45EB7D44C9CD51F43E0232D5F50E81
:1016300000CD07F3CC03F2C9E500000000800000F4
:10164000000000000000000000000000000000009A
:10165000000000000000000000000000000000008A
:10166000000000000000000000000000000000007A
:10167000000000000000000000000000000000006A
:10168000000000000000000000000000C342F7C39B
:101690004AF7C38CF7C394F7C39FF7C3A9F7C3AC4A
:1016A000F7C3B6F7C3C1F7C3CAF7C300F8C306F858
:1016B000C30BF8C314F8C320F8C3AAF7C311F8008A
:1016C000000000000000002EF933F70000AEF90022
:1016D000000000000000002EF933F70000EEF900D2
:1016E000000000000000002EF933F700002EFA0081
:1016F000000000000000002EF933F700006EFA0031
:10170000000000000000002EF933F70000AEFA00E0
:10171000000000000000002EF933F70000EEFA0090
:10172000000000000000002EF933F700002EFB003F
:10173000000000000000002EF933F700006EFB00EF
:10174000000000000000002EF933F70000AEFB009F
:10175000000000000000002EF933F70000EEFB004F
:10176000000000000000002EF933F700002EFC00FE
:10177000000000000000002EF933F700006EFC00AE
:10178000000000000000002EF933F70000AEFC005E
:10179000000000000000002EF933F70000EEFC000E
:1017A000000000000000002EF933F700002EFD00BD
:1017B000000000000000002EF933F700006EFD80ED
:1017C00000077F07FF01FF01800000000400318057
:1017D00000CD10FE1821318000CDBBF82100002281
:1017E00029F9222BF93E02D3A02100E01E160600A3
:1017F0000EA1EDB21D20FB3EC33200002103F622F4
:1018000001003205002106E8220600018000CD0B10
:10181000F83AAEFD4FC300E0DBA3E601C83EFFC9C6
:10182000DBA3E60128FADBA2E67FC9DBA3E60228F8
:10183000FA79D3A2C9C9AFC9DBA5E61020FA79D3DA
:10184000A4C9DBA5E64028FADBA4E67FC9CDBBF836
:10185000010000C300F879210000FE10D032AEFD77
:101860002A25F9ED5B27F90C0D280BC501804009ED
:10187000300113C118F22221F9ED5323F926003A61
:10188000AEFD6F292929291133F619C9606922AFE4
:10189000FDC97932B1FDC9606922B2FDC96069C96B
:1018A000CD39F8B7C0018000EDB0AFC9CD39F8B778
:1018B000C0C5018000EBEDB0C13E01322DF9B93E4B
:1018C00000C0C3BBF8CD76F8281BC5CDBBF8C1B7A7
:1018D000C0CD96F82229F9ED532BF9C501B4FDCD01
:1018E000ECF8C1B7C0CD5EF8AFC93AB1FDE6036F01
:1018F00026002929292929292911B4FD19ED5BB2CE
:10190000FDC9C5CD96F8444D212BF97BBE200F2390
:101910007ABE200A2129F979BE20032378BE6069A6
:10192000C1C9C52AAFFD2929292929444D3AB1FD4C
:10193000B71FB71F814F3E0088472A21F9ED5B236F
:10194000F909300113C1C93A2DF9B7C82A29F9EDAF
:101950005B2BF901B4FDCDD1F8322DF9C9CD08F9D1
:101960003E01D3A8606906000EA9EDB3EDB3DBA874
:10197000E68028FADBAAA7C9CD08F9AFD3A8DBA86F
:10198000E68028FADBAAB7C0606906000EA9EDB2AE
:10199000EDB2AFC97AD3AE7BD3AD7CD3AC7DD3AB44
:1019A000C97EA7C8C54FCD9FF7C12318F40000001A
:1019B0000000000000000000000000000000000027
:1019C0000000000000000000000000000000000017
:1019D0000000000000000000000000000000000007
:1019E00000000000000000000000000000000000F7
:101E40001B630F1B5B481B5B324A0036336B20431E
:101E5000502F4D2076657273696F6E20322E320DD1
:101E60000A5A2D4F6E652042494F53207665727392
:101E7000696F6E20312E300D0A687474703A2F2FFE
:101E80007777772E6E6F6D61642E65652F6D696350
:101E9000726F732F7A2D6F6E650D0A0021B4FDCD20
:101EA00015F921BFFDCD15F9AF322DF932030032FE
:101EB000AEFD2A84002225F92A86002227F9210076
:101EC000002229F9222BF92100002245F72246F7AA
:101ED000C900000000000000000000000000000039
:101EE00000000000000000000000000000000000F2
:101EF00000000000000000000000000000000000E2
:101F000000000000000000000000000000000000D1
:101F100000000000000000000000000000000000C1
:101F200000000000000000000000000000000000B1
:101F300000000000000000000000000000000000A1
:101F40000000000000000000000000000000000091
:101F50000000000000000000000000000000000081
:101F60000000000000000000000000000000000071
:101F70000000000000000000000000000000000061
:101F80000000000000000000000000000000000051
:101F90000000000000000000000000000000000041
:101FA0000000000000000000000000000000000031
:101FB0000000000000000000000000000000000021
:101FC0000000000000000000000000000000000011
:101FD0000000000000000000000000000000000001
:101FE00000000000000000000000000000000000F1
:101FF00000000000000000000000000000000000E1
:1020000000000000000000000000000000000000D0
:1020100000000000000000000000000000000000C0
:1020200000000000000000000000000000000000B0
:1020300000000000000000000000000000000000A0
:102040000000000000000000000000000000000090
:102050000000000000000000000000000000000080
:102060000000000000000000000000000000000070
:102070000000000000000000000000000000000060
:1020800000000000000000000000000031E7FFCD6C
:10209000F1FE0D0A5A2D4F6E65206D6F6E69746FDB
:1020A000722076657273696F6E20322E300D0A28A9
:1020B0004329204D61646973204B61616C2032308B
:1020C00031372C3230313800CD6CFECDF1FE0D0AA7
:1020D000002147FFCD47FECD3EFEF5CD50FE7ECD23
:1020E00074FD380D2A45FF16001E000E000600186C
:1020F0001BCD44FDD5C5CD44FDC57ECD74FD300955
:10210000CD44FDD1E133331803C1E1D1F1FE44CA1E
:1021100073F0FE55CA08EFFE49CA30F0FE4FCA39C7
:10212000F0FE46CA22F0FE43CA1DF0FE45CA40F04A
:10213000FE47CA88EFFE3FCAC6F0FE58CA66EFFEE9
:1021400052CA6CEFFE57CA83EFFE53CA1DEFFE481A
:10215000CACAEEC33CEECD5AFECDF1FE53656E64A5
:1021600020496E74656C20686578204039363030BF
:102170006270730D0A00CD74FECDF1FE0D0A0021D0
:1021800047FFCD47FE7EB728EDCDB2FD38E8CD67DD
:10219000FEC33CEE0E14C5CDD5F13E0ACDDEFEC128
:1021A0000D20F32245FFC33CEE3E04D3A8DBA8E696
:1021B0008028FACDF1FE547970653A00DBAACDC8CB
:1021C000FEFE02DA3CEE3E03D3A8CDF1FE0D0A532B
:1021D000697A653A00DBAECDC8FEDBADCDC8FEDB6B
:1021E000ACCDC8FEDBABCDC8FECDF1FE0D0A00C301
:1021F0003CEECDD7EFC33CEECD12FFB7CA3CEEF5B7
:10220000CDF1FE4572722000F1CDC8FEC33CEECD8B
:10221000F7FE18E7E5C121000039E5D12A43FFF9AF
:10222000D511AEEFD5C52A3DFFE5C1ED5B3FFFE51A
:10223000D12A3BFFE5F12A41FFC92241FFF5E12206
:102240003BFF2100003923232243FFE1F9C5E122AE
:102250003DFFD5E1223FFFCDF1FE0D0A00CDD7EFC6
:10226000C33CEECDF1FE41463A002A3BFFCDC3FE12
:10227000CDF1FE2042433A002A3DFFCDC3FECDF111
:10228000FE2044453A002A3FFFCDC3FECDF1FE209B
:10229000484C3A002A41FFCDC3FECDF1FE205350F9
:1022A0003A002A43FFCDC3FEC9EDB0C33CEE7977B7
:1022B0007CBA38057DBBD23CEE2318F24DED78CDCB
:1022C000C8FEC33CEE794DED79C33CEECDC3FEE5CF
:1022D000CDF1FE2000E17ECDC8FEE5CDF1FE2D0062
:1022E000CD74FE2147FFCD47FEF5CD44FDF1E1A7BA
:1022F000CA3CEE7123E5CDF1FE0D0A00E118CD06D2
:10230000010E00E5092245FFE10600E5CDC3FEE52B
:10231000CDF1FE2000E10E007E23CDC8FEE5CDF11B
:10232000FE2000E10C79FE1038EEE10E007E23FE67
:10233000203804FE7F38023E2ED3A20C79FE1038DE
:10234000ECE5CDF1FE0D0A00E10478FE1038BCC3C7
:102350003CEECDF1FE4428756D70292020205B6194
:1023600064725D0A55286E61736D2920205B61647B
:10237000725D0A4628696C6C2920202066726F6D98
:1023800020746F20627974650A43286F7079292060
:10239000202066726F6D20746F2062797465730AF5
:1023A0004528646974292020206164720A49286ED6
:1023B000292020202020706F72740A4F28757429FC
:1023C00020202020706F727420627974650A47287B
:1023D0006F2920202020206164720A5828616D69CD
:1023E0006E65292073686F772072656769737465FD
:1023F00072730A5228656164292020207365637412
:102400006F72206164720A57287772697465292097
:10241000736563746F72206164720A532864636128
:1024200072642920726573657420636172640A485E
:10243000286865786629202072656365697665205D
:10244000696E74656C206865782066696C650A3F02
:10245000202020202020202068656C700A00C33CCA
:10246000EEE5CDC3FE3E20CDDEFEE17ECDC8FE3ED4
:1024700020CDDEFE7E545D23E5FE403837FE803001
:1024800033FE76200F3E03CD8EF5CDF1FE48414C54
:102490005400E1C9F53E03CD8EF5CDF1FE4C44204C
:1024A00000F1F51F1F1FCD28FD3E2CCDDEFEF1CD26
:1024B00028FDE1C9FE80382AFEC03026F53E03CD56
:1024C0008EF5F1F51F1F1FE6074F21E9F579B728B3
:1024D000087E23B720FB0D18F4CDE8FEF1CD28FDD2
:1024E000E1C92115F6CD9DF5200B3E03CD8EF523D8
:1024F000CDE8FEE1C91A2159F8CD9DF5200F13CD85
:1025000016F523CDE8FECDF6F4E12323C91A210EFA
:10251000F9CD9DF5200F13CD0BF523CDE8FE1ACD97
:10252000C8FEE123C91A217EF9CD9DF5201B13CDEC
:102530000BF523CDE8FE1A5F1600E680280216FF91
:10254000E123E519CDC3FEE1C91AFE22201B13CDFC
:1025500016F5CDF1FE4C44202800CDF6F4CDF1FE69
:10256000292C484C00E12323C9FE32201613CD1636
:10257000F521C9F2CDE8FECDF6F4CDF1FE292C41CE
:102580000018E2FE2A201D13CD16F5CDF1FE4C44B5
:1025900020484C00CDF1FE2C2800CDF6F43E29CD8C
:1025A000DEFE18C1FE3A200E13CD16F5CDF1FE4C1D
:1025B0004420410018DEFED3201813CD0BF5CDF1D9
:1025C000FE4F55542000CDE7F4CDF1FE2C4100E143
:1025D00023C9FEDB201313CD0BF5CDF1FE494E20B0
:1025E000412C00CDE7F4E123C913FEED206D1AFE66
:1025F00040380EFE80300AE60FFE03281AFE0B2834
:10260000341A21A9F9CD9DF5C2D7F4E5CD0BF5E13A
:1026100023CDE8FEE123C9CD23F5CDF1FE4C4420C6
:102620002800CDF6F41BCDF1FE292C001ACD78F54B
:10263000E1232323C91AF5CD23F5CDF1FE4C442027
:1026400000F1CD78F5CDF1FE2C28001ACDC8FE1B87
:102650001ACDC8FE3E29CDDEFE18D5FECBC2EAF368
:10266000CD0BF51ACD3EF51AFE403803CD2EF51AE6
:10267000CD28FDE123C9FEDDC2F3F30E581807FE95
:10268000FDC2C9F40E591AFE36284DFECBCA7AF4A3
:102690002168FBCD9DF5200ACD0BF523CDB5F5E1E5
:1026A00023C91A21D5FBCD9DF5200BCD16F523CDE1
:1026B000B5F5E12323C91A2108FDCD9DF5200CCDE8
:1026C00023F523CDB5F5E1232323C9CD0BF5CDF1BA
:1026D000FE3F3F3F00E123C9CD23F5CDF1FE4C4441
:1026E0002028490079CDDEFE3E2BCDDEFE131ACD2B
:1026F000C8FE3E29CDDEFE3E2CCDDEFE131ACDC82F
:10270000FEE1232323C913131A1B1BE60FFE062821
:1027100013FE0E280FCD23F5CDF1FE3F3F3F00E124
:10272000232323C9C5CD23F513131ACD3EF51A1B58
:10273000FE403803CD2EF5CDF1FE284900C179CDFC
:10274000DEFE3E2BCDDEFE1ACDC8FE3E29CDDEFEDE
:10275000E1232323C93E03CD8EF5CDF1FE3F3F3F5C
:1027600000E1C91AE123E5CDC8FE3E20CDDEFE3EE4
:102770000218E43E28CDDEFE1ACDC8FE3E29CDDE8D
:10278000FEC91ACDC8FE1B1ACDC8FEC91A13CDC882
:10279000FE3E20CDDEFEC9D5CD00F5D13E02CD8E68
:1027A000F5C9CD00F5CD00F51B3E01CD8EF5C9CDA7
:1027B00000F5CD00F5CD00F51BC91F1F1FE607C6AC
:1027C00030CDDEFE3E2CCDDEFEC9FEC03809CDF197
:1027D000FE5345542000C9FE803809CDF1FE524514
:1027E000532000C9FE403809CDF1FE424954200073
:1027F000C91FE61C4F0600213CFB09CDE8FE3E2028
:10280000CDDEFEC91F1F1F1FE60FD6044F87814F65
:102810000600215CFB09CDE8FEC9C54F87814F3E0C
:1028200020CDDEFE0D20FAC1C9BEC823F57E23B738
:1028300020FB7EB72803F118F0F13EFFB7C9CDDECB
:10284000FE7E23B7C8FE3F200679CDDEFE18F2FEDD
:10285000252008131ACDC8FE1B18E6FE2320DF131F
:10286000131A1BCDC8FE1A1BCDC8FE18D442434410
:1028700045484C204141444420412C0041444320E0
:10288000412C00535542200053424320412C00412B
:102890004E442000584F5220004F522000435020F9
:1028A00000004E4F5000024C4420284243292C4146
:1028B0000003494E432042430004494E4320420056
:1028C0000544454320420007524C43410008455807
:1028D0002041462C414627000941444420484C2CC5
:1028E0004243000A4C4420412C28424329000B4417
:1028F0004543204243000C494E432043000D4445CC
:10290000432043000F5252434100124C44202844BC
:1029100045292C410013494E432044450014494E9B
:10292000432044001544454320440017524C4100C5
:102930001941444420484C2C4445001A4C44204141
:102940002C28444529001B444543204445001C498C
:102950004E432045001D4445432045001F5252412F
:102960000023494E4320484C0024494E4320480050
:10297000254445432048002744414100294144441F
:1029800020484C2C484C002B44454320484C002CFC
:10299000494E43204C002D444543204C002F4350CA
:1029A0004C0033494E432053500034494E432028B5
:1029B000484C2900354445432028484C29003753CA
:1029C0004346003941444420484C2C5350003B447A
:1029D0004543205350003C494E432041003D44456F
:1029E000432041003F43434600C0524554204E5AC5
:1029F00000C1504F5020424300C55055534820421B
:102A00004300C752535420303000C8524554205A16
:102A100000C952455400CF52535420303800D05290
:102A20004554204E4300D1504F5020444500D550CE
:102A300055534820444500D752535420313000D8D4
:102A4000524554204300D945585800DF5253542072
:102A5000313800E052455420504F00E1504F502093
:102A6000484C00E3455820285350292C484C00E599
:102A70005055534820484C00E75253542032300000
:102A8000E852455420504500E94A502028484C2936
:102A900000EB45582044452C484C00EF525354203D
:102AA000323800F0524554205000F1504F50204130
:102AB0004600F3444900F55055534820414600F77D
:102AC00052535420333000F8524554204D00F94CF5
:102AD000442053502C484C00FB454900FF525354AE
:102AE0002033380000014C442042432C00114C4458
:102AF0002044452C00214C4420484C2C00314C44AF
:102B00002053502C00C24A50204E5A2C00C34A5029
:102B10002000C443414C4C204E5A2C00CA4A50203D
:102B20005A2C00CC43414C4C205A2C00CD43414CF4
:102B30004C2000D24A50204E432C00D443414C4CF0
:102B4000204E432C00DA4A5020432C00DC43414CF9
:102B50004C20432C00E24A5020504F2C00E44341CB
:102B60004C4C20504F2C00EA4A502050452C00EC91
:102B700043414C4C2050452C00F24A5020502C0030
:102B8000F443414C4C20502C00FA4A50204D2C006C
:102B9000FC43414C4C204D2C0000064C4420422C60
:102BA000000E4C4420432C00164C4420442C001EA4
:102BB0004C4420452C00264C4420482C002E4C44EC
:102BC000204C2C00364C442028484C292C003E4CEC
:102BD0004420412C00C641444420412C00CE4144B5
:102BE0004320412C00D65355422000DE534243205F
:102BF000412C00E6414E442000EE584F522000F692
:102C00004F522000FE435020000010444A4E5A20EC
:102C100000184A522000204A52204E5A2C00284ABE
:102C200052205A2C00304A52204E432C00384A522F
:102C300020432C000040494E20422C2843290041CB
:102C40004F5554202843292C4200425342432048E8
:102C50004C2C424300444E454700455245544E00DB
:102C600046494D203000474C4420492C41004849FA
:102C70004E20432C28432900494F555420284329EE
:102C80002C43004A41444320484C2C4243004D52BF
:102C9000455449004F4C4420522C410050494E208D
:102CA000442C28432900514F5554202843292C44B3
:102CB000005253424320484C2C44450056494D2075
:102CC0003100574C4420412C490058494E20452C96
:102CD00028432900594F5554202843292C45005A90
:102CE00041444320484C2C4445005E494D2032006D
:102CF0005F4C4420412C520060494E20482C284310
:102D00002900614F5554202843292C480062534222
:102D10004320484C2C484C00675252440068494EAE
:102D2000204C2C28432900694F5554202843292C36
:102D30004C006A41444320484C2C484C006F524C94
:102D400044007253424320484C2C53500078494E63
:102D500020412C28432900794F5554202843292C01
:102D600041007A41444320484C2C535000A04C442D
:102D70004900A143504900A2494E4900A34F555470
:102D80004900A84C444400A943504400AA494E4479
:102D900000AB4F55544400B04C44495200B143502D
:102DA000495200B2494E495200B34F54495200B8FB
:102DB0004C44445200B94350445200BA494E445224
:102DC00000BB4F5444520000524C43005252430047
:102DD000524C000052520000534C410053524100EB
:102DE000534C4C0053524C00424300444500484C65
:102DF0000053500023494E4320493F0009414444B9
:102E000020493F2C4243001941444420493F2C446F
:102E100045002941444420493F2C493F002B44456B
:102E20004320493F003941444420493F2C5350003E
:102E3000E1504F5020493F00E34558202853502986
:102E40002C493F00E55055534820493F00E94A507E
:102E50002028493F2900F94C442053502C493F0079
:102E60000034494E432028493F2B2529003544454D
:102E7000432028493F2B252900464C4420422C283A
:102E8000493F2B2529004E4C4420432C28493F2BF9
:102E9000252900564C4420442C28493F2B25290045
:102EA0005E4C4420452C28493F2B252900664C4484
:102EB00020482C28493F2B2529006E4C44204C2CBF
:102EC00028493F2B252900704C442028493F2B25B9
:102ED000292C4200714C442028493F2B25292C43A2
:102EE00000724C442028493F2B25292C4400734C68
:102EF000442028493F2B25292C4500744C44202888
:102F0000493F2B25292C4800754C442028493F2B4C
:102F100025292C4C00774C442028493F2B25292C6F
:102F200041007E4C4420412C28493F2B2529008616
:102F300041444420412C28493F2B2529008E4144FF
:102F40004320412C28493F2B2529009653554220E8
:102F500028493F2B2529009E53424320412C2849D4
:102F60003F2B252900A6414E442028493F2B2529E7
:102F700000AE584F522028493F2B252900B64F520A
:102F80002028493F2B252900BE43502028493F2BAC
:102F900025290000214C4420493F2C2300224C4489
:102FA000202823292C493F002A4C4420493F2C2823
:102FB00023290000E6074F060021E1F5097EFE20E7
:102FC000200ACDF1FE28484C29001803CDDEFEC9A9
:102FD0000100001100007ECD74FD3019E5F53E04BE
:102FE000606929444D626BED5A545D3D20F2F1B1A8
:102FF0004FE12318E17EA7C8237ECD74FDD818F5D4
:10300000CD3EFEFE30380CFE3A380BFE473004FE53
:10301000413003373FC9D630FE0AD8D60737C9C575
:103020007ECD74FD301523878787874F7ECD74FD55
:10303000300923B1C1F5814FF137C997C1C93E3A73
:10304000BE202C230E00CD93FD302447CD93FD30C0
:103050001E57CD93FD30185FCD93FD3012FE002832
:1030600041FE01283AFE022818FE04281437C9CD73
:10307000F1FE496E76616C696420646174610018C8
:103080001ECDF1FE43616E6E6F742068616E646CDC
:103090006520657874656E646564206164720037CC
:1030A0003FC9CD93FD30C8121310F7CD93FD30BF4B
:1030B00079B728B9CDF1FE496E76616C69642063F9
:1030C0006865636B73756D0018D5FE61D8FE7BD0A3
:1030D000D620C97EA7C8FE21D02318F77EA7C8FE38
:1030E0002138F02318F63E85D3A5DBA5E640C8DBE2
:1030F000A418F73E05D3A5C9CDF1FE0D0A2A20007C
:103100000E002147FFDBA3E601200CDBA5E6C0FE95
:10311000C020F2DBA41802DBA2FE082821FE0D2845
:103120001AFE0A2816FE2038DCFE7F30D8473E7E85
:10313000B938D270230C78D3A218CA9777C997B937
:1031400028C32B0DE5CDF1FE08200800E118B67C60
:10315000CDC8FE7DF51F1F1F1FCDD1FEF1E60FC6A6
:1031600030FE3A3802C607D3A2C9D3A2FE0AC03E37
:103170000DD3A2C97EA7C8CDDEFE2318F7E1CDE8A6
:10318000FE23E9CD2EFF3E01D3A8606906000EA9FB
:10319000EDB3EDB3DBA8E68028FADBAAA7C9CD2EF4
:1031A000FFAFD3A8DBA8E68028FADBAAB7C0606926
:1031B00006000EA9EDB2EDB2A7C97AD3AE7BD3ADAE
:1031C0007CD3AC7DD3ABC9000000000000000080C0
:1031D00000000000000000000000000000000000EF
:1031E00000000000000000000000000000000000DF
:1031F00000000000000000000000000000000000CF
:1032000000000000000000000000000000000000BE
:1032100000000000000000000000000000000000AE
:10322000000000000000000000000000000000009E
:10323000000000000000000000000000000000008E
:10324000000000000000000000000000000000007E
:10325000000000000000000000000000000000006E
:10326000000000000000000000000000000000005E
:10327000000000000000000000000000000000004E
:103280000000000000000000000000553E02D3A82E
:10329000DBAAFE02300B97D3A02100EE1E12F91814
:1032A0003F118000AF12D3AED3ADD3ACD3ABD3A814
:1032B000DBA8E68028FADBAAB720DB26FE2E000674
:1032C000000EA9EDB2EDB221C2FF7EFE5820C7016B
:1032D0000C00EDB03E02D3A02100E01E203100F62C
:1032E00006000EA1EDB21D20FB3E0DD3A23E0AD377
:1032F000A221000039E900000000000000000000E9
:10330000000000000000000000000000E629F02995
:10331000162A11241FBECFEFD0E4DEBFCDBF12E0CE
:10332000A0E0B1E0ECEBF6E500E00BBF02C00790D7
:103330000D92AE3BB107D9F725E0AEEBB2E001C08C
:103340001D92A23EB207E1F719E1C9E8D9E104C034
:103350002197FE010E94162BC638D107C9F70E949B
:1033600084290C945C2B0C9400008EBD0DB407FED8
:10337000FDCF8EB50895CF93DF93C0EDD7E08FEFEB
:103380000E94B5198F3F71F0EFEFF1E13197F1F73E
:1033900000C00000A8959091600090649093600038
:1033A000219769F7DF91CF9108958CE08A95F1F725
:1033B00000002C9886E08A95F1F7000008952C9A79
:1033C000089582E484BD81E087BD85BD239A089578
:1033D0005C98549A5D9A5E985E9A4B99FECF8FEFF7
:1033E00082B981B988B98CEF87B985B1876085B911
:1033F00084B1876084B908958FEF82B911B888B914
:1034000017B885B1876085B984B1887F84B95D9824
:103410005C9A54988FE18A95F1F75D9A08956EE968
:1034200071E084EC94E00E94302362E871E084EC67
:1034300094E00E9430230E94E819ECE8F2E380E077
:10344000949192B9982F990F990F936098B986FF2C
:1034500023C0289A2A9896E09A95F1F7000095B132
:10346000997F95B996E09A95F1F70000299A96E030
:103470009A95F1F700002A9A96E09A95F1F70000E4
:103480008F5F31968038E1F66FEA71E084EC94E06A
:103490000E9430230C94FC192898DCCF1F920F92C5
:1034A0000FB60F9211240F900FBE0F901F9018951A
:1034B0001F920F920FB60F9211240BB60F922F93FB
:1034C0008F939F93EF93FF9386B18C77482E4F99FC
:1034D00027C0843229F5832D807C8038A1F4F30144
:1034E000E054FD4F808182B98FEF81B95E984F9B88
:1034F000FECF11B85E9AC30101963C01811592403E
:1035000010F0689436F8212CFF91EF919F918F91E4
:103510002F910F900BBE0F900FBE0F901F9018951C
:1035200086958695482E50B0199903C0222423947D
:10353000EBCF82E0282EE8CF8F929F92AF92BF927E
:10354000EF92FF920F931F93CF93DF93E42DEF3011
:1035500008F059C0F0E0E155F54E0C94162B5C1CB8
:10356000991CF61B0C1C1E1C2D1C031B031BBE1AD6
:10357000341BCB1BD51BDD1BE51BED1B21E0832D75
:1035800022120FC1852D352C823009F453C050F41E
:103590005520A9F08130A9F19FEF9093F104806844
:1035A000382E31C0833009F44CC08430A9F761E073
:1035B0008EEB92E00E9407278093F1041FC0809158
:1035C000F2044091F30450E070E060E0BA01552746
:1035D0004427782B8091F504482B8091F404582BD4
:1035E000F1E1EF2E00E012E020EC32E08EEB92E011
:1035F0000E946D268093F104712C612C689437F839
:1036000002C0712C612C81B18F3F09F0E4C1F894A4
:103610005E984F9BFECF11B85E9A7894212CDF9173
:10362000CF911F910F91FF90EF90BF90AF909F901F
:103630008F9008958091BE028093F10472E8372E36
:10364000E2CF3091C0042091C1049091C2048091D6
:10365000C3043093F5042093F4049093F30480930F
:10366000F20463E8362ECFCF81E02812CCCF381297
:10367000CACFC3016114E2E07E0628F693012F5FF2
:103680003F4F390180549D4FFC015082211532403B
:1036900009F0B9CF8091F2048090F304912CB12C01
:1036A000A12C540199248824B82A8091F504882AF1
:1036B0008091F404982A8091BE02823000F18091BA
:1036C000C0049091C104A091C204B091C3048816B3
:1036D0009906AA06BB0698F40E94D5198091BF02EC
:1036E000811107C049E0880C991CAA1CBB1C4A9593
:1036F000D1F70E94BB198F3F21F00E94DF19CFEF55
:1037000011C0F12CE12C10E000E0A501940168E16A
:103710008EEB92E00E940426C82F8F3F31F4CFEF4A
:103720000E94DF19C093F10469CF8E77C9F78FEF3C
:103730000E94B5198FEF0E94B5198EEF0E94B5193E
:10374000C0ECD2E089910E94B51924E0C03CD207B8
:10375000C9F78FEF0E94B5198FEF0E94B5198FEF4F
:103760000E94B519C82F8FEF0E94B5198C2F8F7149
:10377000853039F40E94BB19C82F8F3F89F6C0E00D
:10378000CFCFCF3F61F28B3021F08D3049F6C0E4CE
:10379000C7CFC0E2C5CF81E0281609F434CF8091AD
:1037A000F10482B98FEF81B92ECFE1E08091F50469
:1037B0002E12F7CF5092F50426CFF1E08091F40459
:1037C0002F12EFCF5092F4041ECF21E08091F3042A
:1037D0002212E7CF5092F30416CF81E0281203C0E3
:1037E0005092F20410CF8091F204DBCFE1E02E1270
:1037F00006C0652D84EC94E00E94DC2104CF84ECAB
:1038000094E00E945B20882329F084EC94E00E94DD
:10381000BD21C7CF12B8C6CFF1E02F1609F4F3CE01
:1038200084EC94E00E945B20582E84EC94E00E948B
:10383000E21F811182E08529582EB3CF0E942D1FEF
:10384000882309F4E0CE21E0221204C0852D0E94D5
:10385000D21ED9CE0E94021FA4CF81E0281215C02B
:10386000E52DE770E093F60457FE0CC0F0E0EE0F94
:10387000FF1FE050FF4F6081718190E080E00E9467
:103880008D1EC1CE0E946D1EBECE0E942D1F8111C5
:1038900080E8582E0E941F1F811180E4582A0E9440
:1038A000221F811180E2582A0E94251F811180E188
:1038B00085295090F604BFCF922D913009F0A3CE08
:1038C000852D823051F138F45520E9F0813011F125
:1038D0001092F00498CE833019F18430C9F783E058
:1038E0008093F0048091FB049091FC04A091FD046E
:1038F000B091FE048093F7049093F804A093F90428
:10390000B093FA0480CE2092F0041092EF0410924B
:10391000EE0479CE0E940F1ADBCF5092F004F5CF5F
:103920001092FB041092FC041092FD041092FE040D
:103930006ACE8091F004823019F1833081F18130B8
:1039400039F6E1E02E1609F45ECEE091EE04F09136
:10395000EF04E11520E2F20770F085E582B98FEF00
:1039600081B98091EE049091EF0401969093EF0459
:103970008093EE0448CEE457FF4DE491E2B9EFCFD7
:1039800081E0281609F43FCEE091EE04F091EF04B7
:10399000E11520E2F20708F7E457FF4FEECF81E090
:1039A000281609F430CE8091F70482B98091F7048B
:1039B0009091F804A091F904B091FA04892F9A2FFC
:1039C000AB2FBB278093F7049093F804A093F904DE
:1039D000B093FA04E7CEF8945E985E981DCE1F92DD
:1039E0000F920FB60F9211240BB60F928F939F93E5
:1039F000AF93BF93EF93FF938BE48093B2008091DA
:103A0000FB049091FC04A091FD04B091FE0401968A
:103A1000A11DB11D8093FB049093FC04A093FD04B1
:103A2000B093FE048091ED04882341F1815080938E
:103A3000ED04811123C08091EA048130F9F4909162
:103A4000E6048091E7049817B9F0E091E40481E07E
:103A50008E0F8093E404F0E0EC53FB4F8BE1808306
:103A60008091E4049091E80489238093E404809198
:103A7000E6048F5F8093E6041092EA04FF91EF91D1
:103A8000BF91AF919F918F910F900BBE0F900FBE82
:103A90000F901F9018951F920F920FB60F9211243E
:103AA0008F939F93319914C080910805811110C0A4
:103AB00010926800809104059091050590939500FF
:103AC0008093940082E08093910081E080930805C8
:103AD0009F918F910F900FBE0F901F9018951F927E
:103AE0000F920FB60F9211240BB60F928F939F93E4
:103AF000EF93FF93809106059091070590939500B1
:103B00008093940080910805823009F43FC028F426
:103B1000813061F1109208052EC0833009F443C052
:103B20008430C1F790915105809152059817C1F0EA
:103B300080910205E0914F0591E09E0F90934F0513
:103B4000F0E0E15DFA4F808380914F05909153053D
:103B5000892380934F05809151058F5F8093510594
:103B60001092910084E080936800D4CF3199F8CF0F
:103B700082E080930805FF91EF919F918F910F90C4
:103B80000BBE0F900FBE0F901F901895319907C074
:103B90001092020587E08093010583E0EACF80E878
:103BA00080930205F7CF8091020590E09595879567
:103BB00080930205319B03C0806880930205809149
:103BC00001058150809301058111D5CF84E0D1CFCB
:103BD0001F920F920FB60F9211240BB60F922F93D4
:103BE0008F939F93EF93FF93809106059091070524
:103BF000909385008093840080910905823009F4B8
:103C00004FC028F4813081F01092090539C083300B
:103C100009F45DC08430C1F780912C05882309F434
:103C200059C0409881E02AC080912C058823A1F1D9
:103C3000E0912B0581E08E0F80932B05F0E0E65F8D
:103C4000FA4F808190912B0520912E05922390931D
:103C50002B0590912C05915090932C058093000595
:103C600080FF1CC0409A8091000590E09595879553
:103C70008093000587E08093FF0482E0809309052C
:103C8000FF91EF919F918F912F910F900BBE0F900D
:103C90000FBE0F901F90189580E0E0CF4098E3CFC3
:103CA0008091000580FF11C0409A8091000590E04E
:103CB00095958795809300058091FF0481508093AE
:103CC000FF048111DDCF83E0D9CF4098EECF409A39
:103CD00084E0D4CF1092810097CF10920305E8E6DC
:103CE000F0E080818B7F8083409A3898EAE0F5E0AD
:103CF00012A281A180A3EFE2F5E012A281A180A32C
:103D000010920905109208051092810010929100FE
:103D100010926F001092710008959B01AC01409ABF
:103D2000389A419A3998109209051092080560E076
:103D300078E283E290E00E94D52A87E090E0BC011F
:103D4000621B730B709307056093060536952795E4
:103D5000821B930B909305058093040510928500B8
:103D600010928400109280001092810081E086BB46
:103D700080936F0010929500109294001092900022
:103D80001092910088BB80937100EDE6F0E0908185
:103D900092609083E8E6F0E0908194609083809355
:103DA0000305089520912C0590912D052917B1F058
:103DB000E0912A0591E09E0F90932A05F0E0E65FDE
:103DC000FA4F808380912A0590912E058923809354
:103DD0002A0580912C058F5F80932C058091090521
:103DE00081110FC04098809106059091070590932E
:103DF00085008093840082E08093810081E080933D
:103E000009050895809151058823B9F0E091500586
:103E100081E08E0F80935005F0E0E15DFA4F8081E4
:103E200090915005209153059223909350059091C5
:103E30005105915090935105089580E00895809127
:103E40005105089580912C05089520912C0590919D
:103E50002D0581E0291380E00895809103050895E0
:103E60002091DB059091DC052917D1F3F89420917E
:103E7000DB059091DC052917B1F0E091D90591E0BF
:103E80009E0F9093D905F0E0E756FA4F808380911A
:103E9000D9059091DD0589238093D9058091DB05B3
:103EA0008F5F8093DB058091C10080628093C100A9
:103EB000789408951F920F920FB60F9211240BB6AB
:103EC0000F922F938F939F93EF93FF938091C60050
:103ED00020919605909197052917B1F0E0919405EE
:103EE00091E09E0F90939405F0E0EC5AFA4F808396
:103EF00080919405909198058923809394058091F1
:103F000096058F5F80939605FF91EF919F918F911A
:103F10002F910F900BBE0F900FBE0F901F90189512
:103F20001F920F920FB60F9211240BB60F922F9380
:103F30008F939F93EF93FF938091DB05882349F143
:103F40008091DB0590E08823B1F0E091DA0581E013
:103F50008E0F8093DA05F0E0E756FA4F908180915A
:103F6000DA052091DD0582238093DA058091DB0557
:103F700081508093DB059093C600FF91EF919F9154
:103F80008F912F910F900BBE0F900FBE0F901F902F
:103F900018958091C1008F7D8093C100EECFFC0108
:103FA0001092C50089E08093C4001092C00088E997
:103FB0008093C1008EE08093C20015A216A211A6C4
:103FC00017A208959091DB0581E0911180E008959A
:103FD0002091DB059091DC0581E0291380E00895B4
:103FE000862F0C94301FCF93DF93EB01209731F095
:103FF0008991882319F00E94301FF8CFDF91CF916B
:104000000895CF92DF92EF92FF92CF93DF93EC016E
:104010006A017B01F7FE0BC08DE20E94301FF09415
:10402000E094D094C094C11CD11CE11CF11C8AE026
:10403000C816D104E104F1046CF0C701B6012AE00E
:1040400030E040E050E00E94F72ABA01A901CE0119
:104050000E940120C701B6012AE030E040E050E0B4
:104060000E94F72A80E3860FDF91CF91FF90EF90B7
:10407000DF90CF900C94301F0F931F93CF93DF935B
:104080008C01EB016A30710544F0CB016AE070E00D
:104090000E94C12AC8010E943C20CE016AE070E063
:1040A0000E94C12A60E3680FC801DF91CF911F9180
:1040B0000F910C94012A8F929F92AF92BF92CF9250
:1040C000DF92EF92FF920F931F93CF93DF93EC0158
:1040D000BB24B3940AE082E0A82ECC24CA94DC2C42
:1040E00080919605882309F436C18091960588232E
:1040F000E1F38091960510E08823B1F0E0919505F9
:1041000081E08E0F80939505F0E0EC5AFA4F108114
:1041100080919505909198058923809395058091CC
:1041200096058150809396058EA1833009F4F2C0E4
:1041300058F48130A9F1823009F4D2C01B3159F50D
:10414000BEA285E089A7CCCF843009F442C0853077
:10415000A9F7E090DE05F090DF0580ED810F8A3051
:1041600008F095C0F7FE04C01092DF051092DE053E
:104170002091DE053091DF05029FC001039F900D65
:104180001124412F4053550B840F951F9093DF0549
:104190008093DE05A5CF612FCE010E94012AA0CF1A
:1041A0001F34A1F01B3541F06BE1CE010E94012AC2
:1041B000612FCE010E94012AAEA2D092DF05C092EB
:1041C000DE05D092E105C092E0058ACF83E08EA3A0
:1041D00087CF80ED810F8A3098F42091E0053091EF
:1041E000E105029FC001039F900D1124412F405310
:1041F000550B840F951F9093E1058093E00570CFD8
:104200001B33A9F01E37A9F06BE1CE010E94012AF1
:104210006BE5CE010E94012A6091E0057091E105F5
:1042200077FD03C0CE010E943C20612F1CC085E0B9
:10423000CECF8FA1823041F78091E0059091E105CA
:104240008330910501F144F48130910581F066E1FC
:10425000029749F01EA244CF85309105B1F06CF071
:1042600063E00697B9F7CE010E94012AF3CF61E11E
:10427000CE010E94012A63E5F6CF61E1CE010E94E2
:10428000012A64E4F0CF67E0EECF62E1ECCF9090DA
:10429000E0058090E1056BE1CE01123571F40E94DA
:1042A000012A69E7CE010E94012A6FE1690DCE0162
:1042B0000E94012A6FE16E0DD6CF0E94012A6BE5A4
:1042C000CE010E94012A692D782DCE010E943C204A
:1042D000F7FCABCF6BE3CE010E94012AB701A2CF5E
:1042E000113330F01A3368F08FEB810F843000F116
:1042F0006BE1CE010E94012A6BE5CE010E94012AEA
:1043000094CF212F2053330B3093E1052093E00508
:1043100084E05DCF113430F0153450F080EB810F24
:104320008430B8F06BE1CE010E94012A6FE4E5CF42
:104330008FA1823071F464E0133409F494CF63E107
:10434000143409F490CF65E0123409F08CCF68E1A1
:104350008ACF6BE1D2CF9AA181E0911101C080E0B8
:10436000DF91CF911F910F91FF90EF90DF90CF9051
:10437000BF90AF909F908F900895CF93DF93EC0103
:10438000CE010E945B208823D9F38AA1882391F073
:10439000E9A181E08E0F89A3EC0FFD2FF11D808133
:1043A00099A12CA1922399A39AA191509AA3DF914C
:1043B000CF91089580E0FBCF1F93CF93DF93EC0163
:1043C000162F8DA1823009F42BC160F48130E1F009
:1043D00081E01B3109F464C0812FDF91CF911F91DF
:1043E0000C94301F833009F41FC1843089F76D337A
:1043F00041F06E3309F410C18BE10E94301F8BE550
:104400004AC082E08FA304C1E4ECE60FEC3308F06D
:1044100041C0F0E0E25FFD4D0C94162B08230A2307
:104420000C234A224A22FC21FC21FC21FC2155229A
:1044300008230823FC21F722FC21FC21FC21FC217C
:10444000AC224A224A224A224A224A224A224A22AA
:104450004A224A224A220E23FC224F224A224A2280
:104460004A224A224A224A2269224A224A22D02247
:10447000DE224A224A224A228F22942276224A228D
:10448000EC228422A72299224A224A224A224A2244
:10449000C222B4228BE10E94301F812F24C084E00D
:1044A0008DA3DF91CF911F9108958BE10E94301F62
:1044B0008BE50E94301F82E30E94301F8AE40E9435
:1044C000301F8BE10E94301F8BE50E94301F88E473
:1044D0000AC08BE10E94301F8BE50E94301F81E3F0
:1044E0000E94301F8AE40E94301F92C08BE10E941C
:1044F000301F8BE50E94301F82E30E94301F8BE447
:104500000E94301F8DE0EFCF8BE10E94301F8BE5C2
:104510000E94301F81E30E94301F8BE4E4CF8BE1C7
:104520000E94301F87E3DFCF8BE10E94301F88E3BA
:10453000DACF8BE10E94301F8BE50E94301F82E3AF
:104540000E94301F87E30E94301F8DE6CCCF8BE1A5
:104550000E94301F8BE5F4CF8BE10E94301F8BE56A
:104560000E94301F80E5BFCF8BE10E94301F8BE59A
:104570000E94301F8FE30E94301F87E30E94301F8C
:104580008CE6B1CF8BE10E94301F8BE50E94301F7B
:104590008FE30E94301F87E30E94301F88E6A3CF7D
:1045A0008BE10E94301F8BE50E94301F8FE30E9439
:1045B000301F82E30E94301F85E3EECF8BE10E9423
:1045C000301F8BE50E94301F8FE30E94301F82E373
:1045D0000E94301F85E3D2CF8BE10E94301F8BE514
:1045E0000E94301F86E30E94301F8EE67CCF8BE155
:1045F0000E94301F8DE477CF6BE1CE010E94012A2B
:104600006FE2CE010E94012A6BE4CE010E94012AD2
:104610001DA247CF81E0F6CE1FA2FACF82E040CFA5
:104620001F5118A783E03CCF8BE10E94301F8BE520
:104630000E94301F48A550E070E060E0CE010E946B
:1046400001208BE30E94301F812F8F51990BAC0109
:10465000052E000C660B770BCE010E94012037CF90
:104660000F931F93CF93DF938C01EB01209739F0C9
:104670006991662321F0C8010E94DC21F7CFDF9108
:10468000CF911F910F910895CF92DF92EF92FF92F9
:10469000CF93DF93EC016A017B01F7FE0BC06DE263
:1046A0000E94DC21F094E094D094C094C11CD11CF1
:1046B000E11CF11C8AE0C816D104E104F1046CF09D
:1046C000C701B6012AE030E040E050E00E94F72A3E
:1046D000BA01A901CE010E944423C701B6012AE014
:1046E00030E040E050E00E94F72A605DCE01DF91AB
:1046F000CF91FF90EF90DF90CF900C94DC21262F8C
:104700002F7060E3620F6A3310F067E3620F0C945E
:10471000DC211F93CF93DF93EC01162F70E084E030
:10472000759567958A95E1F7CE010E947F23612FE9
:10473000CE01DF91CF911F910C947F238EBD0DB4DC
:1047400007FEFDCF8EB50895CF93DF93C0EDD7E080
:104750008FEF0E949E238F3F71F0EFEFF1E13197D1
:10476000F1F700C00000A8959091600090649093CC
:104770006000219769F7DF91CF9108952C9A0895F1
:10478000BF92CF92DF92EF92FF920F931F93CF933E
:10479000DF93D42FD52EC62EB72E7901C5E98823F5
:1047A00021F0C7E8883009F0CFEF80640E949E2393
:1047B0008B2D0E949E238C2D0E949E238D2D0E9466
:1047C0009E238D2F0E949E238C2F0E949E23C0ED3E
:1047D000D7E08FEF0E949E23D82E87FF17C08DE36E
:1047E0008A95F1F700C0A89580916000806480935D
:1047F0006000219771F78D2DDF91CF911F910F915F
:10480000FF90EF90DF90CF90BF900895D0E0C0E090
:1048100081E0E81AF10878F38FEF0E949E230115DA
:104820001105B1F3F801EC0FFD1F80832196F0CF45
:10483000EF92FF920F931F93FC0110829EEF9183E2
:104840008FEF828383836483958386838783208726
:10485000318742875387E486F586068717871F913D
:104860000F91FF90EF9008958F929F92AF92BF9219
:10487000EF92FF920F93CF93DF934B015C01EA011C
:1048800040E052E065EE70E080EC92E00E94552B33
:10489000209721F1E12C82E0F82E08E120EC32E0B3
:1048A000B501A4018EEB92E00E942D2A2197882366
:1048B00079F067EC71E084EC94E0DF91CF910F9197
:1048C000FF90EF90BF90AF909F908F900C9430230B
:1048D0008FEF881A980AA80AB80ADACFDF91CF9129
:1048E0000F91FF90EF90BF90AF909F908F900895A1
:1048F000CF92DF92EF92FF920F931F93CF93DF93AC
:104900008091BE02823008F453C08091C00490911F
:10491000C104A091C204B091C304892B8A2B8B2BB4
:1049200009F446C02CE02A95F1F700002C9836E0F7
:104930003A95F1F700000E94A4238F3FC1F0CFEF1A
:104940008FEF0E949E230E94BE23C11131C080912F
:10495000C0049091C104A091C204B091C3048832F4
:104960009B40A440B105C0F567EE71E023C010E0A4
:1049700000E030E020E040E050E0BA0181E10E9438
:10498000C023C82F8F3FD9F28E77D1F608EE13E0FF
:104990008FEF0E949E23C82F8F3F09F01FC18DE328
:1049A0008A95F1F700C00150110991F70E94BE23CA
:1049B00065ED71E084EC94E00E9430231092BF0218
:1049C00081E08093BE021092C0041092C104109244
:1049D000C2041092C3044FC08091BE04853521F4F7
:1049E0008091BF048A3AC9F062E272E084EC94E0FC
:1049F0000E9430236FE772E084EC94E00E94302341
:104A000084EC94E00E945B20811157C0A8958091AE
:104A10006000806480936000F3CF809182048835C9
:104A200071F0893589F58091860490918704A09171
:104A30008804B091890440E050E0BA010BC0409175
:104A4000860450918704609188047091890480E005
:104A500090E0DC01209192042835D1F0293509F14C
:104A6000452B462B472B31F16AE372E0892B8A2BC9
:104A70008B2B09F4BBCFDF91CF911F910F91FF904A
:104A8000EF90DF90CF90089580E090E0DC01D3CFED
:104A90004091960450919704609198047091990404
:104AA000DFCF8091960490919704A0919804B091E3
:104AB0009904D6CF62E672E099CF84EC94E00E942C
:104AC000BD21C82F682F84EC94E00E94DC2162E8AD
:104AD00071E084EC94E00E943023CF7DC93509F069
:104AE0006DCFE0ECF2E080E092E0DF019C011D92EE
:104AF00021503040E1F7E12C18E0F12E04E010E005
:104B000021E030E040E050E068E58EE794E00E946C
:104B10001824E090C004F090C1040091C2041091E8
:104B2000C30431E0E31A38E0F30A0440110921E03C
:104B300038E044E050E069E58EE894E00E941824F3
:104B400085E58093BE048AEA8093BF04E12C22E0CD
:104B5000F22E08E120EC32E040E050E0BA018EEBAA
:104B600092E00E942D2A882399F06CE972E084EC8F
:104B700094E00E9430231092BF0281E08093BE0235
:104B80001092C0041092C1041092C2041092C30487
:104B9000A8958091600080648093600081E8C82EB1
:104BA000D12CE12CF12C40E250E0C701B6010E946B
:104BB0003424A8958091600080648093600080E830
:104BC000C80E80E4D81EE11CF11CA1E8CA16A8E0BA
:104BD000DA06A4E0EA06F10431F74DCF8E3F09F082
:104BE000AFCEC0ECD2E000EC14E08FEF0E949E2329
:104BF00089930C171D07C9F78FEF0E949E238FEF33
:104C00000E949E23C0E09CCEAF92BF92CF92DF92D3
:104C1000EF92FF920F931F93CF93DF93C62FB22E85
:104C2000A32ED42EC52E0E94BB19D82F8F3F09F07A
:104C300052C0CC23C9F1C830C9F18C2F80640E94C6
:104C4000B5198C2D0E94B5198D2D0E94B5198A2D8C
:104C50000E94B5198B2D0E94B5198D2F0E94B51990
:104C600080EDC82E87E0D82E8FEF0E94B519C82F8F
:104C700087FF1EC08DE38A95F1F700C0A89580914B
:104C8000600080648093600091E0C91AD10861F7E8
:104C90008C2FDF91CF911F910F91FF90EF90DF90BC
:104CA000CF90BF90AF900895D5E9C7CFD7E8C5CFD3
:104CB000D12CC12C0150110958F38FEF0E94B51966
:104CC000E114F104B9F3F701EC0DFD1D8083C60179
:104CD00001966C01EFCFCFEFDBCF8F929F92AF9217
:104CE000BF92CF92DF92EF92FF920F931F93CF93D9
:104CF000DF9300D000D01F92CDB7DEB79D838C83A9
:104D00004A015B012A833B836801E9828E2D813150
:104D100091F4EC81FD818081823008F459C0EE5F0E
:104D2000FD4F80819181A281B38188169906AA06E0
:104D3000BB0608F050C00E94D519EC81FD8181812D
:104D4000811107C089E0880C991CAA1CBB1C8A959C
:104D5000D1F7F12CE12C10E000E0A501940169816C
:104D60008C819D810E94042689838F3F69F18E7713
:104D700059F508EE13E08FEF0E94B51989838F3F34
:104D800069F5FDE3FA95F1F700C00150110999F7B3
:104D90000E94DF1989810F900F900F900F900F9054
:104DA000DF91CF911F910F91FF90EF90DF90CF9007
:104DB000BF90AF909F908F9008958FEF0E94B5198C
:104DC0008FEF0E94B51919828FEF0E94B519E0CFBD
:104DD000FFEFF983DFCF8FEF8983DCCF99819E3F8F
:104DE00099F7EA81EC83FB81FD838C819D81C80E5C
:104DF000D91E8C819D818C159D05F9F28FEF0E9443
:104E0000B519EC81FD818193FD83EC83F2CF9F92F4
:104E1000AF92BF92CF92DF92EF92FF920F931F93C8
:104E2000CF93DF9300D000D000D0CDB7DEB76C01B8
:104E3000962E84B1806B84B980E58CBDF601118219
:104E4000C6018E5F9D4F9E838D83FC01108211826F
:104E500012821382F60110828FEF93EB0197F1F724
:104E600000C000000E94DF191AE08FEF0E94B51900
:104E70001150D9F70E94D519F12CE12C10E000E077
:104E800020E030E0A90160E0C6010E9404268130E4
:104E900041F081E0F60180830E94DF19F6018081F4
:104EA00064C0CE0101967C0104E010E02AEA31E002
:104EB00040E050E068E0C6010E940426F12CE12C9D
:104EC00010E000E020E030E0A90167E3C6010E94A5
:104ED000042620E030E040E050E469E2C6010E9490
:104EE00004268F3F09F453C08E7794E6A92EB12C87
:104EF000811150C0F12CE12C10E000E020E030E006
:104F0000A90167E3C6010E94042620E030E040E0EA
:104F100050E469E2C6010E940426182F8F3F11F069
:104F20008F7799F09FEFEFE9F5E09150E040F04086
:104F3000E1F700C00000A895809160008064809334
:104F4000600021E0A21AB108A9F60E94DF1911231E
:104F500009F444C0911006C060E171E084EC94E073
:104F60000E94302381E0F601808326960FB6F894E4
:104F7000DEBF0FBECDBFDF91CF911F910F91FF908C
:104F8000EF90DF90CF90BF90AF909F90089584E610
:104F9000A82EB12CF12CE12C10E000E020E030E054
:104FA000A90161E0C6010E940426182F8F3F11F06D
:104FB0008F7759F26FEF8FE995E061508040904014
:104FC000E1F700C00000A8958091600080648093A4
:104FD0006000E1E0AE1AB108E9F6B7CF911006C063
:104FE00066E271E084EC94E00E9430238DB581602C
:104FF0008DBD0E94D519CE0101967C0104E010E020
:105000002AEA31E040E050E068E0C6010E94042650
:10501000182F911006C066E371E084EC94E00E94C2
:10502000302312FD07C08B81813021F48C818A3AB4
:1050300009F4F9C082E0F60180836EE371E0992003
:1050400009F427C10E94DF195601F2E0AF0EB11C2E
:1050500009E0E02E00E110E0950140E050E0BA01E7
:10506000C6010E946D2681118EC0F6019185528580
:1050700043858281807C09F020C1208530E0322F79
:105080002227330F330FF4E09F9FC0011124822B9E
:10509000932B252F30E076E0359527957A95E1F72B
:1050A000282B392B3F702F5F3F4FF60157815F70E0
:1050B00081E090E0A0E0B0E004C0880F991FAA1F33
:1050C000BB1F5A95D2F7DC01AB2FBB27A6950E94D8
:1050D0001F2B2485221F2227221F440F422B47709B
:1050E0004E5FA1E0B0E002C0AA0FBB1F4A95E2F7F5
:1050F0009B01AC010E942E2BED81FE8160837183A8
:105100008283938391103FC067E671E084EC94E062
:105110000E943023ED81FE81408151816281738143
:1051200084EC94E00E94442363E771E084EC94E013
:105130000E943023ED81FE816081718182819381A3
:1051400018EEE12E13E0F12E00E010E0A801970127
:105150000E94D52ACA01B90139E0660F771F881F5E
:10516000991F3A95D1F7A80197010E94D52ABA0153
:10517000A90184EC94E00E9444236EE771E084EC82
:1051800094E00E9430238AE0E82E00E110E09501CF
:1051900040E050E0BA01C6010E946D2681117ECE2A
:1051A00091107CCE65E871E084EC94E00E9430239D
:1051B000F601628184EC94E00E94892361E971E048
:1051C00084EC94E00E943023F601638184EC94E047
:1051D0000E9489236CE284EC94E00E94DC21F601B9
:1051E000648184EC94E00E94892367E971E084EC97
:1051F00094E00E9430235601F5E0AF0EB11C860109
:10520000065F1F4FF50161915F0184EC94E00E94FD
:10521000DC21A016B106B1F762E871E084EC94E0FD
:105220000E9430233BCE83E0F6018083CE010196BD
:105230007C0104E010E020E030E0A9016AE3C6014F
:105240000E9404268F3F51F18E7741F5898186FFB8
:1052500025C084E0F601808364E471E0992011F1B7
:10526000F12CE12C10E000E020E032E040E050E0E2
:1052700060E1C6010E9404268F3F09F4E3CE8E77D9
:1052800009F0E0CE81E0F60181839110DBCE6DE480
:1052900071E084EC94E00E943023D4CE9110E0CFF2
:1052A00069E471E084EC94E00E94302362E871E0EC
:1052B00084EC94E00E943023D3CF892F90E0B0E0BB
:1052C000A0E0DC019927882788279927AF73BB279F
:1052D0004285538554274527542770E060E0842B8E
:1052E000952BA62BB72B0196A11DB11D5AE0880F57
:1052F000991FAA1FBB1F5A95D1F7ED81FE818083AC
:105300009183A283B383FECE14BE80E885BF11B81B
:105310008FEF82B914B885B917B88CEF88B982E6D7
:105320008AB98BED8BB983B7817F83BF83B78160E7
:1053300083BF8091600088618093600088EE8093D5
:1053400060001092B00087E08093B1008BE48093FE
:10535000B20081E08093700092E09093690093E046
:105360009CBB8DBB78942FEF8FE995E02150804056
:105370009040E1F700C0000084EC94E00E94CF1F51
:105380006CEB71E084EC94E00E94302360E08EEBE3
:1053900092E00E9407270E9478240E94E1190E944F
:1053A0000F1A85E08093F60460E875E280E090E0F3
:1053B0000E948D1E8895A8958091600080648093DE
:1053C00060002220B9F30E949C1AF4CFE4ECF4E0D0
:1053D00010A211A212A280E283A38FE184A30895F8
:1053E000EFE2F5E010A211A212A290E293A38FE1E6
:1053F00084A3EAE0F5E010A211A212A293A384A371
:105400000895FC0192A183A1981779F0A0A181E0F1
:105410008A0F80A3AE0FBF2FB11D6C9380A194A102
:10542000892380A382A18F5F82A308951092D9055A
:105430001092DA051092DB0590E49093DC058FE37F
:105440008093DD05109294051092950510929605B3
:1054500090939705809398050895AF92BF92CF924D
:10546000DF92EF92FF920F931F93CF93DF936A0126
:105470007B015901C02F083179F4FC0120812230D1
:1054800028F1EE5FFD4F4081518162817381C41626
:10549000D506E606F706D0F4FCE0FA95F1F7000031
:1054A0002C9826E02A95F1F70000FC0181818111FA
:1054B00007C089E0CC0CDD1CEE1CFF1C8A95D1F7DF
:1054C0000E94A4238F3F21F00E94BE23CFEF07C08C
:1054D0000E94A4238F3F79F0CFEF0E94BE238C2F30
:1054E000DF91CF911F910F91FF90EF90DF90CF90C0
:1054F000BF90AF90089510E000E030E020E0B701E9
:10550000A6018C2F0E94C023C82F8F3F29F38E77CE
:1055100021F78FEF0E949E238FEF0E949E238EEF34
:105520000E949E23E5017501FEEFFF1A89910E94FA
:105530009E23EC16FD06D1F78FEF0E949E238FEF7E
:105540000E949E238FEF0E949E23C82F8FEF0E9400
:105550009E238C2F8F71853041F40E94A423C82F85
:105560008F3F09F0BACFC0E0B8CFCF3F09F4B4CF36
:105570008B3029F08D3009F0B0CFC0E4AECFC0E25F
:10558000ACCF97FB072E16F4009407D077FD09D017
:105590000E94362B07FC05D03EF4909581959F4FD5
:1055A0000895709561957F4F0895A1E21A2EAA1B68
:1055B000BB1BFD010DC0AA1FBB1FEE1FFF1FA217C3
:1055C000B307E407F50720F0A21BB30BE40BF50BC0
:1055D000661F771F881F991F1A9469F76095709549
:1055E000809590959B01AC01BD01CF010895052EDA
:1055F00097FB1EF400940E940E2B57FD07D00E94CB
:10560000D52A07FC03D04EF40C940E2B50954095F0
:10561000309521953F4F4F4F5F4F0895909580955E
:10562000709561957F4F8F4F9F4F0895EE0FFF1F2D
:105630000024001C0BBE0790F691E02D0994A29F58
:10564000B001B39FC001A39F700D811D1124911D56
:10565000B29F700D811D1124911D0895B7FF0C9408
:105660004A2B0E944A2B821B930B0895AA1BBB1B3B
:1056700051E107C0AA1FBB1FA617B70710F0A61B52
:10568000B70B881F991F5A95A9F780959095BC0173
:10569000CD0108950E941F2BA59F900DB49F900DE2
:1056A000A49F800D911D11240895DC0101C06D930C
:0C56B00041505040E0F70895F894FFCFFF
:1056BC0032002C01B0046009C0128025004B00960A
:1056CC005344206361726420696E69742066616959
:1056DC006C65640D0A005344206361726420666F2C
:1056EC00756E640D0A0020547970653A200053449D
:1056FC00310D0A0053444843005344320020557383
:10570C00696E6720626C6F636B2061646472657391
:10571C0073696E670D0A0020436170616369747967
:10572C003A200020736563746F7273202800204D3B
:10573C0042290D0A00204D6F64656C204D49443A96
:10574C0000204F49443A00206E616D653A00426F6B
:10575C006F747374726170206C6F61646572005346
:10576C0074617274696E67205A3830001B630F1BAA
:10577C005B481B5B324A0057726974652065727214
:10578C006F720D0A00556E7265616461626C652002
:10579C00636172640D0A004361726420746F6F2040
:1057AC00736D616C6C20746F206265207573656419
:1057BC0020286174206C65617374203235364D423B
:1057CC002063617264207265717569726564290D5C
:1057DC000A004361726420686173206E6F207061EF
:1057EC0072746974696F6E732C0043617264206803
:1057FC0061732064726976652073706163652062E1
:10580C007574206E6F2074617065207370616365B0
:10581C002C004361726420686173206E6F204350CA
:10582C002F4D20706172746974696F6E732C002037
:10583C00637265617465206E65772070617274693E
:10584C0074696F6E207461626C653F004661696CAF
:10585C00656420746F20777269746520706172744E
:0E586C006974696F6E207461626C650D0A00CC
:00000001FF
